{
  "contractName": "ERC20Test",
  "abi": [
    {
      "inputs": [
        {
          "internalType": "address",
          "name": "_targetToken",
          "type": "address"
        }
      ],
      "stateMutability": "nonpayable",
      "type": "constructor"
    },
    {
      "inputs": [
        {
          "internalType": "address",
          "name": "_owner",
          "type": "address"
        },
        {
          "internalType": "uint256",
          "name": "_balance",
          "type": "uint256"
        }
      ],
      "name": "testBA",
      "outputs": [
        {
          "internalType": "bool",
          "name": "success",
          "type": "bool"
        }
      ],
      "stateMutability": "view",
      "type": "function"
    },
    {
      "inputs": [
        {
          "internalType": "uint256",
          "name": "_totalSupply",
          "type": "uint256"
        }
      ],
      "name": "testTS",
      "outputs": [
        {
          "internalType": "bool",
          "name": "success",
          "type": "bool"
        }
      ],
      "stateMutability": "view",
      "type": "function"
    },
    {
      "inputs": [
        {
          "internalType": "address",
          "name": "_owner",
          "type": "address"
        },
        {
          "internalType": "address",
          "name": "_spender",
          "type": "address"
        },
        {
          "internalType": "uint256",
          "name": "_remaining",
          "type": "uint256"
        }
      ],
      "name": "testAL",
      "outputs": [
        {
          "internalType": "bool",
          "name": "success",
          "type": "bool"
        }
      ],
      "stateMutability": "view",
      "type": "function"
    },
    {
      "inputs": [
        {
          "internalType": "address",
          "name": "_spender",
          "type": "address"
        },
        {
          "internalType": "uint256",
          "name": "_value",
          "type": "uint256"
        }
      ],
      "name": "testAP",
      "outputs": [
        {
          "internalType": "bool",
          "name": "success",
          "type": "bool"
        }
      ],
      "stateMutability": "nonpayable",
      "type": "function"
    },
    {
      "inputs": [
        {
          "internalType": "address",
          "name": "_from",
          "type": "address"
        },
        {
          "internalType": "address",
          "name": "_to",
          "type": "address"
        },
        {
          "internalType": "uint256",
          "name": "_value",
          "type": "uint256"
        }
      ],
      "name": "testTF",
      "outputs": [
        {
          "internalType": "bool",
          "name": "success",
          "type": "bool"
        }
      ],
      "stateMutability": "nonpayable",
      "type": "function"
    },
    {
      "inputs": [
        {
          "internalType": "address",
          "name": "_to",
          "type": "address"
        },
        {
          "internalType": "uint256",
          "name": "_value",
          "type": "uint256"
        }
      ],
      "name": "testTR",
      "outputs": [
        {
          "internalType": "bool",
          "name": "success",
          "type": "bool"
        }
      ],
      "stateMutability": "nonpayable",
      "type": "function"
    }
  ],
  "bytecode": "0x608060405234801561001057600080fd5b5060405161263e38038061263e8339818101604052602081101561003357600080fd5b8101908080519060200190929190505050806000806101000a81548173ffffffffffffffffffffffffffffffffffffffff021916908373ffffffffffffffffffffffffffffffffffffffff160217905550506125aa806100946000396000f3fe608060405234801561001057600080fd5b50600436106100625760003560e01c80631e42e7fb1461006757806357f06b19146100ad5780635b0fa0db14610133578063901608b214610199578063c06e276e146101ff578063e01547c514610265575b600080fd5b6100936004803603602081101561007d57600080fd5b81019080803590602001909291905050506102eb565b604051808215151515815260200191505060405180910390f35b610119600480360360608110156100c357600080fd5b81019080803573ffffffffffffffffffffffffffffffffffffffff169060200190929190803573ffffffffffffffffffffffffffffffffffffffff169060200190929190803590602001909291905050506103a9565b604051808215151515815260200191505060405180910390f35b61017f6004803603604081101561014957600080fd5b81019080803573ffffffffffffffffffffffffffffffffffffffff16906020019092919080359060200190929190505050611588565b604051808215151515815260200191505060405180910390f35b6101e5600480360360408110156101af57600080fd5b81019080803573ffffffffffffffffffffffffffffffffffffffff1690602001909291908035906020019092919050505061167e565b604051808215151515815260200191505060405180910390f35b61024b6004803603604081101561021557600080fd5b81019080803573ffffffffffffffffffffffffffffffffffffffff1690602001909291908035906020019092919050505061189e565b604051808215151515815260200191505060405180910390f35b6102d16004803603606081101561027b57600080fd5b81019080803573ffffffffffffffffffffffffffffffffffffffff169060200190929190803573ffffffffffffffffffffffffffffffffffffffff16906020019092919080359060200190929190505050612449565b604051808215151515815260200191505060405180910390f35b6000816000809054906101000a900473ffffffffffffffffffffffffffffffffffffffff1673ffffffffffffffffffffffffffffffffffffffff166318160ddd6040518163ffffffff1660e01b815260040160206040518083038186803b15801561035557600080fd5b505afa158015610369573d6000803e3d6000fd5b505050506040513d602081101561037f57600080fd5b8101908080519060200190929190505050141561039f57600190506103a4565b600090505b919050565b60008030905060008060009054906101000a900473ffffffffffffffffffffffffffffffffffffffff1673ffffffffffffffffffffffffffffffffffffffff166370a08231876040518263ffffffff1660e01b8152600401808273ffffffffffffffffffffffffffffffffffffffff1673ffffffffffffffffffffffffffffffffffffffff16815260200191505060206040518083038186803b15801561044f57600080fd5b505afa158015610463573d6000803e3d6000fd5b505050506040513d602081101561047957600080fd5b8101908080519060200190929190505050905060008060009054906101000a900473ffffffffffffffffffffffffffffffffffffffff1673ffffffffffffffffffffffffffffffffffffffff166370a08231876040518263ffffffff1660e01b8152600401808273ffffffffffffffffffffffffffffffffffffffff1673ffffffffffffffffffffffffffffffffffffffff16815260200191505060206040518083038186803b15801561052c57600080fd5b505afa158015610540573d6000803e3d6000fd5b505050506040513d602081101561055657600080fd5b8101908080519060200190929190505050905060008060009054906101000a900473ffffffffffffffffffffffffffffffffffffffff1673ffffffffffffffffffffffffffffffffffffffff1663dd62ed3e89866040518363ffffffff1660e01b8152600401808373ffffffffffffffffffffffffffffffffffffffff1673ffffffffffffffffffffffffffffffffffffffff1681526020018273ffffffffffffffffffffffffffffffffffffffff1673ffffffffffffffffffffffffffffffffffffffff1681526020019250505060206040518083038186803b15801561063d57600080fd5b505afa158015610651573d6000803e3d6000fd5b505050506040513d602081101561066757600080fd5b8101908080519060200190929190505050905060008314156108c3576000809054906101000a900473ffffffffffffffffffffffffffffffffffffffff1673ffffffffffffffffffffffffffffffffffffffff166323b872dd8989896040518463ffffffff1660e01b8152600401808473ffffffffffffffffffffffffffffffffffffffff1673ffffffffffffffffffffffffffffffffffffffff1681526020018373ffffffffffffffffffffffffffffffffffffffff1673ffffffffffffffffffffffffffffffffffffffff1681526020018281526020019350505050602060405180830381600087803b15801561075f57600080fd5b505af192505050801561079357506040513d602081101561077f57600080fd5b810190808051906020019092919050505060015b6108b557600060405190506000815260011561085c5760443d10156107bb576000905061085c565b60046000803e60005160e01c6308c379a081146107dc57600091505061085c565b60043d036004833e81513d602482011167ffffffffffffffff821117156108085760009250505061085c565b808301805167ffffffffffffffff81111561082a57600094505050505061085c565b8060208301013d86018111156108485760009550505050505061085c565b601f19601f82011660405282955050505050505b806108675750610875565b600195505050505050611581565b3d80600081146108a1576040519150601f19603f3d011682016040523d82523d6000602084013e6108a6565b606091505b50600195505050505050611581565b506000945050505050611581565b85831061136c578186830110610f5b57858110610d165760008614806108e95750600086115b15610d0457600115156000809054906101000a900473ffffffffffffffffffffffffffffffffffffffff1673ffffffffffffffffffffffffffffffffffffffff166323b872dd8a8a8a6040518463ffffffff1660e01b8152600401808473ffffffffffffffffffffffffffffffffffffffff1673ffffffffffffffffffffffffffffffffffffffff1681526020018373ffffffffffffffffffffffffffffffffffffffff1673ffffffffffffffffffffffffffffffffffffffff1681526020018281526020019350505050602060405180830381600087803b1580156109ce57600080fd5b505af11580156109e2573d6000803e3d6000fd5b505050506040513d60208110156109f857600080fd5b810190808051906020019092919050505015151415610cff578583036000809054906101000a900473ffffffffffffffffffffffffffffffffffffffff1673ffffffffffffffffffffffffffffffffffffffff166370a082318a6040518263ffffffff1660e01b8152600401808273ffffffffffffffffffffffffffffffffffffffff1673ffffffffffffffffffffffffffffffffffffffff16815260200191505060206040518083038186803b158015610ab257600080fd5b505afa158015610ac6573d6000803e3d6000fd5b505050506040513d6020811015610adc57600080fd5b8101908080519060200190929190505050148015610bd357508582016000809054906101000a900473ffffffffffffffffffffffffffffffffffffffff1673ffffffffffffffffffffffffffffffffffffffff166370a08231896040518263ffffffff1660e01b8152600401808273ffffffffffffffffffffffffffffffffffffffff1673ffffffffffffffffffffffffffffffffffffffff16815260200191505060206040518083038186803b158015610b9657600080fd5b505afa158015610baa573d6000803e3d6000fd5b505050506040513d6020811015610bc057600080fd5b8101908080519060200190929190505050145b8015610cec57508581036000809054906101000a900473ffffffffffffffffffffffffffffffffffffffff1673ffffffffffffffffffffffffffffffffffffffff1663dd62ed3e8a876040518363ffffffff1660e01b8152600401808373ffffffffffffffffffffffffffffffffffffffff1673ffffffffffffffffffffffffffffffffffffffff1681526020018273ffffffffffffffffffffffffffffffffffffffff1673ffffffffffffffffffffffffffffffffffffffff1681526020019250505060206040518083038186803b158015610caf57600080fd5b505afa158015610cc3573d6000803e3d6000fd5b505050506040513d6020811015610cd957600080fd5b8101908080519060200190929190505050145b15610cfe576001945050505050611581565b5b610d11565b6000945050505050611581565b610f56565b6000809054906101000a900473ffffffffffffffffffffffffffffffffffffffff1673ffffffffffffffffffffffffffffffffffffffff166323b872dd8989896040518463ffffffff1660e01b8152600401808473ffffffffffffffffffffffffffffffffffffffff1673ffffffffffffffffffffffffffffffffffffffff1681526020018373ffffffffffffffffffffffffffffffffffffffff1673ffffffffffffffffffffffffffffffffffffffff1681526020018281526020019350505050602060405180830381600087803b158015610df257600080fd5b505af1925050508015610e2657506040513d6020811015610e1257600080fd5b810190808051906020019092919050505060015b610f48576000604051905060008152600115610eef5760443d1015610e4e5760009050610eef565b60046000803e60005160e01c6308c379a08114610e6f576000915050610eef565b60043d036004833e81513d602482011167ffffffffffffffff82111715610e9b57600092505050610eef565b808301805167ffffffffffffffff811115610ebd576000945050505050610eef565b8060208301013d8601811115610edb57600095505050505050610eef565b601f19601f82011660405282955050505050505b80610efa5750610f08565b600195505050505050611581565b3d8060008114610f34576040519150601f19603f3d011682016040523d82523d6000602084013e610f39565b606091505b50600195505050505050611581565b506000945050505050611581565b611367565b600015156000809054906101000a900473ffffffffffffffffffffffffffffffffffffffff1673ffffffffffffffffffffffffffffffffffffffff166323b872dd8a8a8a6040518463ffffffff1660e01b8152600401808473ffffffffffffffffffffffffffffffffffffffff1673ffffffffffffffffffffffffffffffffffffffff1681526020018373ffffffffffffffffffffffffffffffffffffffff1673ffffffffffffffffffffffffffffffffffffffff1681526020018281526020019350505050602060405180830381600087803b15801561103b57600080fd5b505af115801561104f573d6000803e3d6000fd5b505050506040513d602081101561106557600080fd5b81019080805190602001909291905050501515141561136657826000809054906101000a900473ffffffffffffffffffffffffffffffffffffffff1673ffffffffffffffffffffffffffffffffffffffff166370a082318a6040518263ffffffff1660e01b8152600401808273ffffffffffffffffffffffffffffffffffffffff1673ffffffffffffffffffffffffffffffffffffffff16815260200191505060206040518083038186803b15801561111d57600080fd5b505afa158015611131573d6000803e3d6000fd5b505050506040513d602081101561114757600080fd5b810190808051906020019092919050505014801561123c5750816000809054906101000a900473ffffffffffffffffffffffffffffffffffffffff1673ffffffffffffffffffffffffffffffffffffffff166370a08231896040518263ffffffff1660e01b8152600401808273ffffffffffffffffffffffffffffffffffffffff1673ffffffffffffffffffffffffffffffffffffffff16815260200191505060206040518083038186803b1580156111ff57600080fd5b505afa158015611213573d6000803e3d6000fd5b505050506040513d602081101561122957600080fd5b8101908080519060200190929190505050145b80156113535750806000809054906101000a900473ffffffffffffffffffffffffffffffffffffffff1673ffffffffffffffffffffffffffffffffffffffff1663dd62ed3e8a876040518363ffffffff1660e01b8152600401808373ffffffffffffffffffffffffffffffffffffffff1673ffffffffffffffffffffffffffffffffffffffff1681526020018273ffffffffffffffffffffffffffffffffffffffff1673ffffffffffffffffffffffffffffffffffffffff1681526020019250505060206040518083038186803b15801561131657600080fd5b505afa15801561132a573d6000803e3d6000fd5b505050506040513d602081101561134057600080fd5b8101908080519060200190929190505050145b15611365576001945050505050611581565b5b5b611578565b6000809054906101000a900473ffffffffffffffffffffffffffffffffffffffff1673ffffffffffffffffffffffffffffffffffffffff1663a9059cbb88886040518363ffffffff1660e01b8152600401808373ffffffffffffffffffffffffffffffffffffffff1673ffffffffffffffffffffffffffffffffffffffff16815260200182815260200192505050602060405180830381600087803b15801561141457600080fd5b505af192505050801561144857506040513d602081101561143457600080fd5b810190808051906020019092919050505060015b61156a5760006040519050600081526001156115115760443d10156114705760009050611511565b60046000803e60005160e01c6308c379a08114611491576000915050611511565b60043d036004833e81513d602482011167ffffffffffffffff821117156114bd57600092505050611511565b808301805167ffffffffffffffff8111156114df576000945050505050611511565b8060208301013d86018111156114fd57600095505050505050611511565b601f19601f82011660405282955050505050505b8061151c575061152a565b600195505050505050611581565b3d8060008114611556576040519150601f19603f3d011682016040523d82523d6000602084013e61155b565b606091505b50600195505050505050611581565b506000945050505050611581565b60009450505050505b9392505050565b6000816000809054906101000a900473ffffffffffffffffffffffffffffffffffffffff1673ffffffffffffffffffffffffffffffffffffffff166370a08231856040518263ffffffff1660e01b8152600401808273ffffffffffffffffffffffffffffffffffffffff1673ffffffffffffffffffffffffffffffffffffffff16815260200191505060206040518083038186803b15801561162957600080fd5b505afa15801561163d573d6000803e3d6000fd5b505050506040513d602081101561165357600080fd5b810190808051906020019092919050505014156116735760019050611678565b600090505b92915050565b600080309050600115156000809054906101000a900473ffffffffffffffffffffffffffffffffffffffff1673ffffffffffffffffffffffffffffffffffffffff1663095ea7b386866040518363ffffffff1660e01b8152600401808373ffffffffffffffffffffffffffffffffffffffff1673ffffffffffffffffffffffffffffffffffffffff16815260200182815260200192505050602060405180830381600087803b15801561173057600080fd5b505af1158015611744573d6000803e3d6000fd5b505050506040513d602081101561175a57600080fd5b81019080805190602001909291905050501515141561189257826000809054906101000a900473ffffffffffffffffffffffffffffffffffffffff1673ffffffffffffffffffffffffffffffffffffffff1663dd62ed3e83876040518363ffffffff1660e01b8152600401808373ffffffffffffffffffffffffffffffffffffffff1673ffffffffffffffffffffffffffffffffffffffff1681526020018273ffffffffffffffffffffffffffffffffffffffff1673ffffffffffffffffffffffffffffffffffffffff1681526020019250505060206040518083038186803b15801561184657600080fd5b505afa15801561185a573d6000803e3d6000fd5b505050506040513d602081101561187057600080fd5b81019080805190602001909291905050501415611891576001915050611898565b5b60009150505b92915050565b60008030905060008060009054906101000a900473ffffffffffffffffffffffffffffffffffffffff1673ffffffffffffffffffffffffffffffffffffffff166370a08231836040518263ffffffff1660e01b8152600401808273ffffffffffffffffffffffffffffffffffffffff1673ffffffffffffffffffffffffffffffffffffffff16815260200191505060206040518083038186803b15801561194457600080fd5b505afa158015611958573d6000803e3d6000fd5b505050506040513d602081101561196e57600080fd5b8101908080519060200190929190505050905060008060009054906101000a900473ffffffffffffffffffffffffffffffffffffffff1673ffffffffffffffffffffffffffffffffffffffff166370a08231876040518263ffffffff1660e01b8152600401808273ffffffffffffffffffffffffffffffffffffffff1673ffffffffffffffffffffffffffffffffffffffff16815260200191505060206040518083038186803b158015611a2157600080fd5b505afa158015611a35573d6000803e3d6000fd5b505050506040513d6020811015611a4b57600080fd5b810190808051906020019092919050505090506000821415611c70576000809054906101000a900473ffffffffffffffffffffffffffffffffffffffff1673ffffffffffffffffffffffffffffffffffffffff1663a9059cbb87876040518363ffffffff1660e01b8152600401808373ffffffffffffffffffffffffffffffffffffffff1673ffffffffffffffffffffffffffffffffffffffff16815260200182815260200192505050602060405180830381600087803b158015611b0f57600080fd5b505af1925050508015611b4357506040513d6020811015611b2f57600080fd5b810190808051906020019092919050505060015b611c63576000604051905060008152600115611c0c5760443d1015611b6b5760009050611c0c565b60046000803e60005160e01c6308c379a08114611b8c576000915050611c0c565b60043d036004833e81513d602482011167ffffffffffffffff82111715611bb857600092505050611c0c565b808301805167ffffffffffffffff811115611bda576000945050505050611c0c565b8060208301013d8601811115611bf857600095505050505050611c0c565b601f19601f82011660405282955050505050505b80611c175750611c24565b6001945050505050612443565b3d8060008114611c50576040519150601f19603f3d011682016040523d82523d6000602084013e611c55565b606091505b506001945050505050612443565b5060009350505050612443565b848210612232578085820110611f6d576000851480611c8f5750600085115b15611f5c57600115156000809054906101000a900473ffffffffffffffffffffffffffffffffffffffff1673ffffffffffffffffffffffffffffffffffffffff1663a9059cbb88886040518363ffffffff1660e01b8152600401808373ffffffffffffffffffffffffffffffffffffffff1673ffffffffffffffffffffffffffffffffffffffff16815260200182815260200192505050602060405180830381600087803b158015611d4057600080fd5b505af1158015611d54573d6000803e3d6000fd5b505050506040513d6020811015611d6a57600080fd5b810190808051906020019092919050505015151415611f57578482036000809054906101000a900473ffffffffffffffffffffffffffffffffffffffff1673ffffffffffffffffffffffffffffffffffffffff166370a08231856040518263ffffffff1660e01b8152600401808273ffffffffffffffffffffffffffffffffffffffff1673ffffffffffffffffffffffffffffffffffffffff16815260200191505060206040518083038186803b158015611e2457600080fd5b505afa158015611e38573d6000803e3d6000fd5b505050506040513d6020811015611e4e57600080fd5b8101908080519060200190929190505050148015611f4557508481016000809054906101000a900473ffffffffffffffffffffffffffffffffffffffff1673ffffffffffffffffffffffffffffffffffffffff166370a08231886040518263ffffffff1660e01b8152600401808273ffffffffffffffffffffffffffffffffffffffff1673ffffffffffffffffffffffffffffffffffffffff16815260200191505060206040518083038186803b158015611f0857600080fd5b505afa158015611f1c573d6000803e3d6000fd5b505050506040513d6020811015611f3257600080fd5b8101908080519060200190929190505050145b15611f565760019350505050612443565b5b611f68565b60009350505050612443565b61222d565b600015156000809054906101000a900473ffffffffffffffffffffffffffffffffffffffff1673ffffffffffffffffffffffffffffffffffffffff1663a9059cbb88886040518363ffffffff1660e01b8152600401808373ffffffffffffffffffffffffffffffffffffffff1673ffffffffffffffffffffffffffffffffffffffff16815260200182815260200192505050602060405180830381600087803b15801561201957600080fd5b505af115801561202d573d6000803e3d6000fd5b505050506040513d602081101561204357600080fd5b81019080805190602001909291905050501515141561222c57816000809054906101000a900473ffffffffffffffffffffffffffffffffffffffff1673ffffffffffffffffffffffffffffffffffffffff166370a08231856040518263ffffffff1660e01b8152600401808273ffffffffffffffffffffffffffffffffffffffff1673ffffffffffffffffffffffffffffffffffffffff16815260200191505060206040518083038186803b1580156120fb57600080fd5b505afa15801561210f573d6000803e3d6000fd5b505050506040513d602081101561212557600080fd5b810190808051906020019092919050505014801561221a5750806000809054906101000a900473ffffffffffffffffffffffffffffffffffffffff1673ffffffffffffffffffffffffffffffffffffffff166370a08231886040518263ffffffff1660e01b8152600401808273ffffffffffffffffffffffffffffffffffffffff1673ffffffffffffffffffffffffffffffffffffffff16815260200191505060206040518083038186803b1580156121dd57600080fd5b505afa1580156121f1573d6000803e3d6000fd5b505050506040513d602081101561220757600080fd5b8101908080519060200190929190505050145b1561222b5760019350505050612443565b5b5b61243b565b6000809054906101000a900473ffffffffffffffffffffffffffffffffffffffff1673ffffffffffffffffffffffffffffffffffffffff1663a9059cbb87876040518363ffffffff1660e01b8152600401808373ffffffffffffffffffffffffffffffffffffffff1673ffffffffffffffffffffffffffffffffffffffff16815260200182815260200192505050602060405180830381600087803b1580156122da57600080fd5b505af192505050801561230e57506040513d60208110156122fa57600080fd5b810190808051906020019092919050505060015b61242e5760006040519050600081526001156123d75760443d101561233657600090506123d7565b60046000803e60005160e01c6308c379a081146123575760009150506123d7565b60043d036004833e81513d602482011167ffffffffffffffff82111715612383576000925050506123d7565b808301805167ffffffffffffffff8111156123a55760009450505050506123d7565b8060208301013d86018111156123c3576000955050505050506123d7565b601f19601f82011660405282955050505050505b806123e257506123ef565b6001945050505050612443565b3d806000811461241b576040519150601f19603f3d011682016040523d82523d6000602084013e612420565b606091505b506001945050505050612443565b5060009350505050612443565b600093505050505b92915050565b6000816000809054906101000a900473ffffffffffffffffffffffffffffffffffffffff1673ffffffffffffffffffffffffffffffffffffffff1663dd62ed3e86866040518363ffffffff1660e01b8152600401808373ffffffffffffffffffffffffffffffffffffffff1673ffffffffffffffffffffffffffffffffffffffff1681526020018273ffffffffffffffffffffffffffffffffffffffff1673ffffffffffffffffffffffffffffffffffffffff1681526020019250505060206040518083038186803b15801561251e57600080fd5b505afa158015612532573d6000803e3d6000fd5b505050506040513d602081101561254857600080fd5b81019080805190602001909291905050501415612568576001905061256d565b600090505b939250505056fea2646970667358221220666045ade885839a3aa2fdbcf4169eec6936bad4b3b58a72d594040a40efab4e64736f6c63430006000033",
  "source": "pragma solidity ^0.6.0;\r\n\r\nabstract contract ERC20TokenInterface {\r\n    function totalSupply() public virtual view returns (uint256);\r\n    function balanceOf(address _owner) public virtual view returns (uint256 balance);\r\n    function transfer(address _to, uint256 _value) public virtual returns (bool success);\r\n    function transferFrom(address _from, address _to, uint256 _value) public virtual returns (bool success);\r\n    function approve(address _spender, uint256 _value) public virtual returns (bool success);\r\n    function allowance(address _owner, address _spender) public virtual view returns (uint256 remaining);\r\n\r\n    event Transfer(address indexed _from, address indexed _to, uint256 _value);\r\n    event Approval(address indexed _owner, address indexed _spender, uint256 _value);\r\n}\r\n\r\ncontract ERC20Test {\r\n    \r\n    ERC20TokenInterface targetToken;\r\n    \r\n    constructor (address _targetToken) public {\r\n        targetToken = ERC20TokenInterface(_targetToken);\r\n    }\r\n    \r\n    function testBA(address _owner, uint256 _balance) public view returns (bool success) {\r\n        if (targetToken.balanceOf(_owner) == _balance) {\r\n            return true;\r\n        }\r\n        return false;\r\n    }\r\n    \r\n    function testTS(uint256 _totalSupply) public view returns (bool success) {\r\n        if (targetToken.totalSupply() == _totalSupply) {\r\n            return true;\r\n        }\r\n        return false;\r\n    }\r\n\r\n    function testAL(address _owner, address _spender, uint256 _remaining) public view returns (bool success) {\r\n        if (targetToken.allowance(_owner, _spender) == _remaining) {\r\n            return true;\r\n        }\r\n        return false;\r\n    }\r\n    \r\n    function testAP(address _spender, uint256 _value) public returns (bool success) {\r\n        address msgSender = address(this);\r\n        //uint256 fromBal = targetToken.balanceOf(msgSender);\r\n\r\n        /*\r\n        // invalid caller\r\n        if (fromBal == 0) {\r\n            uint256 remaining = targetToken.allowance(msgSender, _spender);\r\n            if (targetToken.approve(_spender, _value) == false) {\r\n                if (targetToken.allowance(msgSender, _spender) == remaining) {\r\n                    return true;\r\n                }\r\n            }\r\n            return false;            \r\n        }\r\n\r\n        if (fromBal >= _value) {\r\n            if (targetToken.approve(_spender, _value) == true) {\r\n                if (targetToken.allowance(msgSender, _spender) == _value) {\r\n                    return true;\r\n                }\r\n            }\r\n        }\r\n        else {\r\n            uint256 remaining = targetToken.allowance(msgSender, _spender);\r\n            if (targetToken.approve(_spender, _value) == false) {\r\n                if (targetToken.allowance(msgSender, _spender) == remaining) {\r\n                    return true;\r\n                }\r\n            }\r\n        }*/\r\n        if (targetToken.approve(_spender, _value) == true) {\r\n            if (targetToken.allowance(msgSender, _spender) == _value) {\r\n                return true;\r\n            }\r\n        }\r\n        return false;\r\n    }    \r\n    \r\n    function testTF(address _from, address _to, uint256 _value) public returns (bool success) {\r\n        address msgSender = address(this);\r\n        uint256 fromBal = targetToken.balanceOf(_from);\r\n        uint256 toBal = targetToken.balanceOf(_to);\r\n        uint256 remaining = targetToken.allowance(_from, msgSender);\r\n\r\n       // invalid from\r\n        if (fromBal == 0) {\r\n            /*if (targetToken.transferFrom(_from, _to, _value) == false) {\r\n                if ( (targetToken.balanceOf(_to) == toBal) || (toBal == 0) ) {\r\n                    return true;\r\n                }\r\n            }*/\r\n\r\n            // throw check\r\n            try targetToken.transferFrom(_from, _to, _value) {\r\n                return false;\r\n            } catch Error(string memory reason) {\r\n                return true;\r\n            } catch (bytes memory lowLevelData) {\r\n                return true;\r\n            }\r\n        }  // invalid from\r\n         \r\n        if (fromBal >= _value) {\r\n            if ((toBal + _value) >= toBal) {\r\n                if (remaining >= _value) {\r\n                    if (_value == 0 || _value > 0) {\r\n                        if (targetToken.transferFrom(_from, _to, _value) == true) {\r\n                            if ( (targetToken.balanceOf(_from) == (fromBal - _value)) &&\r\n                                 (targetToken.balanceOf(_to) == (toBal + _value)) &&\r\n                                 (targetToken.allowance(_from, msgSender) == (remaining - _value)) ) {\r\n                                     return true;\r\n                            }\r\n                        }\r\n                    }\r\n                    else {\r\n                        return false;\r\n                    }\r\n                }\r\n                else {\r\n                    // throw check\r\n                    \r\n                    try targetToken.transferFrom(_from, _to, _value) {\r\n                        return false;\r\n                    } catch Error(string memory reason) {\r\n                        return true;\r\n                    } catch (bytes memory lowLevelData) {\r\n                        return true;\r\n                    }\r\n                }\r\n            }\r\n            else {\r\n                if (targetToken.transferFrom(_from, _to, _value) == false) {\r\n                    if ( (targetToken.balanceOf(_from) == fromBal) &&\r\n                         (targetToken.balanceOf(_to) == toBal) &&\r\n                         (targetToken.allowance(_from, msgSender) == remaining) )\r\n                         return true;\r\n                }\r\n            }    \r\n        }\r\n        else {\r\n            /*if (targetToken.transferFrom(_from, _to, _value) == false) {\r\n                    if ( (targetToken.balanceOf(_from) == fromBal) &&\r\n                         (targetToken.balanceOf(_to) == toBal) &&\r\n                         (targetToken.allowance(_from, msgSender) == remaining) )\r\n                         return true;\r\n            }*/\r\n            // throw \r\n            try targetToken.transfer(_to, _value) {\r\n                return false;\r\n            } catch Error(string memory reason) {\r\n                return true;\r\n            } catch (bytes memory lowLevelData) {\r\n                return true;\r\n            }\r\n        }\r\n        \r\n        return false;\r\n    }\r\n\r\n    function testTR(address _to, uint256 _value) public returns (bool success) {\r\n        address msgSender = address(this);\r\n        uint256 fromBal = targetToken.balanceOf(msgSender);\r\n        uint256 toBal = targetToken.balanceOf(_to);\r\n \r\n       // invalid sender\r\n        if (fromBal == 0) {\r\n            /*if (targetToken.transfer(_to, _value) == false) {\r\n                if ( (targetToken.balanceOf(_to) == toBal) || (toBal == 0) ) {\r\n                    return true;\r\n                }\r\n            }*/\r\n            // throw \r\n            try targetToken.transfer(_to, _value) {\r\n                return false;\r\n            } catch Error(string memory reason) {\r\n                return true;\r\n            } catch (bytes memory lowLevelData) {\r\n                return true;\r\n            }\r\n        }  // invalid sender\r\n         \r\n        if (fromBal >= _value) {\r\n            if ((toBal + _value) >= toBal) {\r\n                if (_value == 0 || _value > 0) {\r\n                    if (targetToken.transfer(_to, _value) == true) {\r\n                        if ( (targetToken.balanceOf(msgSender) == (fromBal - _value)) &&\r\n                             (targetToken.balanceOf(_to) == (toBal + _value)) ) {\r\n                                 return true;\r\n                        }\r\n                    }\r\n                }\r\n                else {\r\n                    return false;\r\n                }\r\n            }\r\n            else {\r\n                if (targetToken.transfer(_to, _value) == false) {\r\n                    if ( (targetToken.balanceOf(msgSender) == fromBal) &&\r\n                         (targetToken.balanceOf(_to) == toBal) )\r\n                         return true;\r\n                }\r\n            }    \r\n        }\r\n        else {\r\n            // throw \r\n            \r\n            try targetToken.transfer(_to, _value) {\r\n                return false;\r\n            } catch Error(string memory reason) {\r\n                return true;\r\n            } catch (bytes memory lowLevelData) {\r\n                return true;\r\n            }\r\n        }\r\n        \r\n        return false;\r\n    }\r\n}",
  "sourcePath": "C:/Users/moonh/Documents/Study/BlockChain/Doc/EXP/common/contracts/ERC20Test.sol",
  "compiler": {
    "name": "solc",
    "version": "0.6.0+commit.26b70077.Emscripten.clang"
  },
  "schemaVersion": "3.0.22",
  "updatedAt": "2020-07-27T06:55:06.755Z",
  "devdoc": {
    "methods": {}
  },
  "userdoc": {
    "methods": {}
  }
}